{
	"data": {
		"bytecode": {
			"linkReferences": {},
			"object": "608060405260055f5561034d6001553480156018575f80fd5b506101d4806100265f395ff3fe608060405234801561000f575f80fd5b5060043610610034575f3560e01c80631de7e97714610038578063997ee16d14610056575b5f80fd5b610040610075565b60405161004d91906100bd565b60405180910390f35b61005e61007d565b60405161006c9291906100d6565b60405180910390f35b5f8054905090565b5f806001545f5461008e919061012a565b91506001545f5461009f919061016b565b90509091565b5f819050919050565b6100b7816100a5565b82525050565b5f6020820190506100d05f8301846100ae565b92915050565b5f6040820190506100e95f8301856100ae565b6100f660208301846100ae565b9392505050565b7f4e487b71000000000000000000000000000000000000000000000000000000005f52601160045260245ffd5b5f610134826100a5565b915061013f836100a5565b925082820261014d816100a5565b91508282048414831517610164576101636100fd565b5b5092915050565b5f610175826100a5565b9150610180836100a5565b9250828201905080821115610198576101976100fd565b5b9291505056fea26469706673582212206b602a4a29c3363b9cb1279f59903cdc264dab460975f8ff00ffac351d02097564736f6c634300081a0033",
			"opcodes": "PUSH1 0x80 PUSH1 0x40 MSTORE PUSH1 0x5 PUSH0 SSTORE PUSH2 0x34D PUSH1 0x1 SSTORE CALLVALUE DUP1 ISZERO PUSH1 0x18 JUMPI PUSH0 DUP1 REVERT JUMPDEST POP PUSH2 0x1D4 DUP1 PUSH2 0x26 PUSH0 CODECOPY PUSH0 RETURN INVALID PUSH1 0x80 PUSH1 0x40 MSTORE CALLVALUE DUP1 ISZERO PUSH2 0xF JUMPI PUSH0 DUP1 REVERT JUMPDEST POP PUSH1 0x4 CALLDATASIZE LT PUSH2 0x34 JUMPI PUSH0 CALLDATALOAD PUSH1 0xE0 SHR DUP1 PUSH4 0x1DE7E977 EQ PUSH2 0x38 JUMPI DUP1 PUSH4 0x997EE16D EQ PUSH2 0x56 JUMPI JUMPDEST PUSH0 DUP1 REVERT JUMPDEST PUSH2 0x40 PUSH2 0x75 JUMP JUMPDEST PUSH1 0x40 MLOAD PUSH2 0x4D SWAP2 SWAP1 PUSH2 0xBD JUMP JUMPDEST PUSH1 0x40 MLOAD DUP1 SWAP2 SUB SWAP1 RETURN JUMPDEST PUSH2 0x5E PUSH2 0x7D JUMP JUMPDEST PUSH1 0x40 MLOAD PUSH2 0x6C SWAP3 SWAP2 SWAP1 PUSH2 0xD6 JUMP JUMPDEST PUSH1 0x40 MLOAD DUP1 SWAP2 SUB SWAP1 RETURN JUMPDEST PUSH0 DUP1 SLOAD SWAP1 POP SWAP1 JUMP JUMPDEST PUSH0 DUP1 PUSH1 0x1 SLOAD PUSH0 SLOAD PUSH2 0x8E SWAP2 SWAP1 PUSH2 0x12A JUMP JUMPDEST SWAP2 POP PUSH1 0x1 SLOAD PUSH0 SLOAD PUSH2 0x9F SWAP2 SWAP1 PUSH2 0x16B JUMP JUMPDEST SWAP1 POP SWAP1 SWAP2 JUMP JUMPDEST PUSH0 DUP2 SWAP1 POP SWAP2 SWAP1 POP JUMP JUMPDEST PUSH2 0xB7 DUP2 PUSH2 0xA5 JUMP JUMPDEST DUP3 MSTORE POP POP JUMP JUMPDEST PUSH0 PUSH1 0x20 DUP3 ADD SWAP1 POP PUSH2 0xD0 PUSH0 DUP4 ADD DUP5 PUSH2 0xAE JUMP JUMPDEST SWAP3 SWAP2 POP POP JUMP JUMPDEST PUSH0 PUSH1 0x40 DUP3 ADD SWAP1 POP PUSH2 0xE9 PUSH0 DUP4 ADD DUP6 PUSH2 0xAE JUMP JUMPDEST PUSH2 0xF6 PUSH1 0x20 DUP4 ADD DUP5 PUSH2 0xAE JUMP JUMPDEST SWAP4 SWAP3 POP POP POP JUMP JUMPDEST PUSH32 0x4E487B7100000000000000000000000000000000000000000000000000000000 PUSH0 MSTORE PUSH1 0x11 PUSH1 0x4 MSTORE PUSH1 0x24 PUSH0 REVERT JUMPDEST PUSH0 PUSH2 0x134 DUP3 PUSH2 0xA5 JUMP JUMPDEST SWAP2 POP PUSH2 0x13F DUP4 PUSH2 0xA5 JUMP JUMPDEST SWAP3 POP DUP3 DUP3 MUL PUSH2 0x14D DUP2 PUSH2 0xA5 JUMP JUMPDEST SWAP2 POP DUP3 DUP3 DIV DUP5 EQ DUP4 ISZERO OR PUSH2 0x164 JUMPI PUSH2 0x163 PUSH2 0xFD JUMP JUMPDEST JUMPDEST POP SWAP3 SWAP2 POP POP JUMP JUMPDEST PUSH0 PUSH2 0x175 DUP3 PUSH2 0xA5 JUMP JUMPDEST SWAP2 POP PUSH2 0x180 DUP4 PUSH2 0xA5 JUMP JUMPDEST SWAP3 POP DUP3 DUP3 ADD SWAP1 POP DUP1 DUP3 GT ISZERO PUSH2 0x198 JUMPI PUSH2 0x197 PUSH2 0xFD JUMP JUMPDEST JUMPDEST SWAP3 SWAP2 POP POP JUMP INVALID LOG2 PUSH5 0x6970667358 0x22 SLT KECCAK256 PUSH12 0x602A4A29C3363B9CB1279F59 SWAP1 EXTCODECOPY 0xDC 0x26 0x4D 0xAB CHAINID MULMOD PUSH22 0xF8FF00FFAC351D02097564736F6C634300081A003300 "
		},
		"gasEstimates": {
			"creation": {
				"codeDepositCost": "93600",
				"executionCost": "44350",
				"totalCost": "137950"
			},
			"external": {
				"getres()": "infinite",
				"getresults()": "2410"
			}
		},
		"methodIdentifiers": {
			"getres()": "997ee16d",
			"getresults()": "1de7e977"
		}
	},
	"abi": [
		{
			"inputs": [],
			"name": "getres",
			"outputs": [
				{
					"internalType": "uint256",
					"name": "product",
					"type": "uint256"
				},
				{
					"internalType": "uint256",
					"name": "total",
					"type": "uint256"
				}
			],
			"stateMutability": "view",
			"type": "function"
		},
		{
			"inputs": [],
			"name": "getresults",
			"outputs": [
				{
					"internalType": "uint256",
					"name": "",
					"type": "uint256"
				}
			],
			"stateMutability": "view",
			"type": "function"
		}
	]
}